:020000040800F2
:10000000205F01205D02000823580008EF2400084B
:1000100021580008B90D0008156B00080000000009
:100020000000000000000000000000009D0100082A
:100030006D10000800000000F9010008355B0008A1
:1000400077020008770200087702000877020008AC
:10005000770200087702000877020008770200089C
:10006000770200087702000877020008770200088C
:10007000770200087702000877020008770200087C
:10008000770200087702000877020008770200086C
:10009000770200087702000877020008770200085C
:1000A000770200087702000877020008770200084C
:1000B000770200087702000877020008770200083C
:1000C000770200087702000877020008770200082C
:1000D000770200087702000877020008770200081C
:1000E000770200087702000877020008770200080C
:1000F00077020008770200087702000877020008FC
:1001000077020008770200087702000877020008EB
:100110007702000877020008115C000877020008E7
:1001200077020008770200087702000877020008CB
:1001300077020008770200087702000877020008BB
:1001400077020008770200087702000877020008AB
:10015000770200087702000877020008770200089B
:10016000770200087702000877020008770200088B
:1001700077020008770200087702000800000000FC
:100180007702000877020008DFF80CD000F01AFCB4
:1001900000480047352C0208205F01202C4B1968CD
:1001A0000868B0E8F04F80F30988BFF36F8F4FF015
:1001B000000080F3118870470000000008480068C4
:1001C000006880F308884FF0000080F3148862B65E
:1001D00061B6BFF34F8FBFF36F8F00DF00BF00BF6B
:1001E00008ED00E0DFF80C00016841F470010160E7
:1001F000704700BF88ED00E0EFF30980BFF36F8F19
:10020000134B1A681EF0100F08BF20ED108A20E96A
:10021000F04F106009B44FF0500080F31188BFF325
:100220004F8FBFF36F8F27F0F9F84FF0000080F386
:10023000118809BC19680868B0E8F04F1EF0100F6B
:1002400008BFB0EC108A80F30988BFF36F8F704746
:1002500084000020EFF305807047000006488047C7
:1002600006480047FEE7FEE7FEE7FEE7FEE7FEE79B
:10027000FEE7FEE7FEE7FEE7F55B00088901000800
:100280002DE9F05F0546002092469B4688460646CB
:10029000814640241BE0284641464746224600F05E
:1002A000A8FA53465A46C01A914110D3114618462F
:1002B000224600F08FFA2D1A67EB01084F462246BE
:1002C0000120002100F086FA17EB00094E41201EA4
:1002D000A4F10104DFDC484631462A464346BDE826
:1002E000F09F40EA01039B0703D009E008C9121FF1
:1002F00008C0042AFAD203E011F8013B00F8013BE0
:10030000521EF9D27047D2B201E000F8012B491E0B
:10031000FBD270470022F6E710B513460A460446A2
:100320001946FFF7F0FF204610BD421C10F8011BD4
:100330000029FBD1801A704710B5002200E0521C42
:10034000835C8C5CA34201D1002BF8D1D8B2E1B21E
:10035000401A10BD034611F8012B00F8012B002AAA
:10036000F9D1184670472DE9FE4F804681EA030017
:10037000C00F0C46009021F0004123F00045B8EB7F
:100380000200A94105D24046214690461C460B4634
:10039000024623F00040104347D0270DC7F30A0060
:1003A000C3F30A510290401A019040286BDAC3F35C
:1003B000130040F4801B0098924620B10023D2EB3A
:1003C000030A63EB0B0B01985946C0F140025046FB
:1003D00000F000FA06460D4650465946019A00F0D4
:1003E00018FA10EB08006141002487EA115284EAF0
:1003F000E7731A4340D0009A62B3019A012A4FEA88
:10040000075215DC001B61EB02014FF0004202EACB
:100410000752CDE90042001C41F5801132462B46BF
:1004200000F018FA03B0BDE8F08F40462146F9E726
:10043000001B61EB0201001C41F5801300185B41B9
:100440002018A2F5001747EB030140EAD570B61952
:100450006D4111E06D084FEA360645EAC0754FEA76
:100460000752001B61EB0201001C41F58011490895
:100470004FEA30000019514132462B4603B0BDE827
:10048000F04F00F0D8B90098012240000023D0EBD3
:10049000020263EBE073009821464FEAE074B8EB88
:1004A000000061EB0401E9E783F000435BE781F0C2
:1004B000004158E72DE9FE4F81EA030404F00044AF
:1004C00021F0004100944FF0000B23F0004350EA6C
:1004D00001045ED052EA03045BD0C3F30A54C1F3B3
:1004E0000A552C44A4F2F3340194A0FB0254C1F346
:1004F000130141F48011C3F3130343F4801301FB90
:10050000024400FB034E840A970A44EA815447EAF6
:100510008357A4FB076802958D0A05FB07854FEA00
:10052000932C04FB0C542705029D4FEA065847EA1A
:100530001637B5EB08056EEB070C870E920E47EAEF
:10054000811742EA8312A7FB0201B6EB0B0164EBB1
:1005500000042B0D43EA0C335E1844EB1C50DA46C2
:100560005146E7FB0201C5F313044FEA0B3343EA9C
:1005700014534FEA0432019C43EA0603A4F10C042D
:100580000294009CCDE900B400F064F903B0BDE82A
:10059000F08F00200146F9E72DE9F04D81EA0304D0
:1005A00004F0004B21F0004514464FF0000A23F000
:1005B000004150EA050220D054EA01021DD0C5F3E3
:1005C0000A570246C5F31303C1F31300C1F30A56D9
:1005D00040F4801543F48013A7EB0608101BD646A1
:1005E00008F2FD3873EB050002D308F1010801E0C1
:1005F00092185B41B8F1000F03DA00200146BDE814
:10060000F08D00204FF48011064684460EE0171B43
:1006100073EB050705D3121B63EB050306434CEA96
:10062000010C49084FEA300092185B4150EA01077B
:10063000EDD152EA030012D082EA040083EA0501F8
:10064000084305D0101BAB4106D20122002306E06F
:1006500000224FF0004302E06FF0010253101AEB4A
:1006600006004CEB085110EB0A0041EB0B01BDE812
:10067000F04D00F0E0B80EB5C10F80EAE07008441C
:10068000CA07002140F233438DE80E000A460B46AC
:1006900000F0E0F803B000BD0EB540F23341029126
:1006A0000021CDE900110A460B4600F0D3F803B053
:1006B00000BD70B5C1F30A5201F000450024C1F33A
:1006C000130140F2FF3341F480119A4201DA002015
:1006D00070BD40F233439A42A2F2334203DC5242ED
:1006E00000F087F800E090402C43F1D0404270BD0C
:1006F000C1F30A5210B5C1F3130140F2FF3341F4C4
:1007000080119A4201DA002010BD40F233439A4230
:10071000A2F2334203DC524200F06BF810BD90406D
:1007200010BD00F0004230F000400AD0C10D01F5CC
:100730006071C0F3160042EA0151C208400711433C
:10074000704700200146704730B5041E71F1000467
:1007500004DB4FF00044404264EB0101141E73F1CE
:10076000000405DB1C464FF00043524263EB0403D8
:100770008B4208BF824230BD30B5041E71F10004C7
:1007800004DB4FF00044404264EB0101141E73F19E
:10079000000405DB1C464FF00043524263EB0403A8
:1007A000994208BF904230BD30B50B46014600204B
:1007B0002022012409E021FA02F59D4205D303FA23
:1007C00002F5491B04FA02F52844151EA2F10102A4
:1007D000F1DC30BD202A04DB203A00FA02F10020CF
:1007E00070479140C2F1200320FA03F3194390406F
:1007F0007047202A04DB203A21FA02F000217047DA
:1008000021FA02F3D040C2F1200291400843194678
:100810007047202A06DBCB17203A41FA02F043EA60
:10082000E07306E041FA02F3D040C2F120029140A9
:1008300008431946704710B5141E73F1000408DA16
:10084000401C41F1000192185B411A4301D120F094
:10085000010010BD2DE9F04D92469B4611B1B1FA51
:1008600081F202E0B0FA80F220329046FFF7B2FF48
:1008700004460F4640EA0A0041EA0B0153465A4635
:10088000084313D0114653EA010019D0C8F14002C1
:100890005046FFF7AEFF05460E46504659464246C3
:1008A000FFF798FF084305D0012004E020463946B1
:1008B000BDE8F08D0020054346EAE0762C4337433F
:1008C0000A986305E40AA0EB08000022FD0A44EA46
:1008D00047540A3002D500200146E9E70105101906
:1008E0006941DDE9084500196941BDE8F04DA2E71D
:1008F0002DE9F04D00231A461B1A8A4103DB002024
:100900000146BDE8F08DC1F30A52C1F3130141F471
:1009100080154FF0000BD10702D100186D41521E17
:100920000027044640F2FF11384601EB620A3E46BA
:100930008046024600204FF48011FFF75AFFC2198B
:100940007141BB1846EB0100B4EB030C75EB000CD6
:1009500004D3E41A65EB000517460E46241908F186
:1009600001006D4180463428E3DDF91946EB0600AD
:10097000091BA84103D24FF0FF32134601E00022C9
:1009800013461BEB070046EB0A51BDE8F04DFFF79D
:1009900052BFC1F30A52C1F3130140F2FF3341F4D5
:1009A00080119A4202DA00200146704740F2334338
:1009B0009A42A2F2334202DC5242FFF71ABFFFF71B
:1009C00009BF0000064C074D06E0E06840F0010357
:1009D00094E8070098471034AC42F6D3FFF7D8FBF1
:1009E000604905088049050870B58C1810F8015B4E
:1009F00015F0070301D110F8013B2A1106D110F8B8
:100A0000012B03E010F8016B01F8016B5B1EF9D1BB
:100A10002B0705D40023521E0DD401F8013BFAE741
:100A200010F8013BCB1A921C03E013F8015B01F8AC
:100A3000015B521EF9D5A142D8D3002070BD01F050
:100A4000ABBE2DE9F0410D460146002004464E198B
:100A500008E00702301B401E80B200F007F8641C5B
:100A60003844E4B2AC42F4D3BDE8F08110B504469A
:100A700001F03AFF200AA02101EB4000C0B201F0D2
:100A800003FF01F073FFE0B201F0FEFE01F06EFF24
:100A900001F02AFFA12001F0F7FE01F067FF00201E
:100AA00001F0BEFE044601F03FFF204610BD2DE9D7
:100AB000F04116460D460746002409E0E00025FAFD
:100AC00000F0C1B2381980B200F006F8641CE4B23C
:100AD000B442F3D3BDE8F08170B50D46044601F091
:100AE00003FF200AA02101EB4000C0B201F0CCFEC0
:100AF00001F03CFFE0B201F0C7FE01F037FF2846ED
:100B000001F0C2FE01F032FF01F00EFFBDE87040BF
:100B10000A2000F04DBE10B50446F32000F0C8F8DE
:100B2000204000D0012010BD70B5F92000F0C0F8C1
:100B30000446F82000F0BCF80546F72000F0B8F8AD
:100B4000000340EA051040EA1410BDE8704008F0C8
:100B50006DBF70B5FC2000F0ABF80446FB2000F040
:100B6000A7F80546FA2000F0A3F8000340EA0510B4
:100B700040EA1410BDE8704009F09EB87CB501F061
:100B8000D7FC882000F094F80446892000F090F803
:100B900004EB0020454C20808A2000F089F80546AF
:100BA0008B2000F085F805EB002060808C2000F0A1
:100BB0007FF805468D2000F07BF805EB0020A08033
:100BC000882000F075F80546892000F071F805EBE3
:100BD0000020E080902000F06BF80546912000F0A6
:100BE00067F805EB00202081922000F061F80546AF
:100BF000932000F05DF805EB00206081942000F068
:100C000057F80546952000F053F805EB0020A08129
:100C1000962000F04DF80546972000F049F805EBC6
:100C20000020E081982000F043F80546992000F06C
:100C30003FF805EB002020829A2000F039F80546A5
:100C40009B2000F035F805EB002060829C2000F02E
:100C50002FF805469D2000F02BF805EB0020A08220
:100C60009E2000F025F805469F2000F021F805EBB6
:100C70000020E082B621E02000F050F803208DF83B
:100C8000000001218DF801108DF80200684600F087
:100C90003AF800208DF8040004218DF805108DF835
:100CA000060001A800F024F87CBD0000085B0120CC
:100CB00010B5044601F0E4FCEC2001F0B1FC01F0B9
:100CC00021FD204601F0ACFC01F01CFD01F0D8FC38
:100CD000ED2001F0A5FC01F015FD002001F06CFCF9
:100CE000044601F0EDFC204610BDD020FFF7E0BF28
:100CF000017842784901807841EA82010143C9B212
:100D0000F52000F00BB8417802784901807841EA7B
:100D100082010143C9B2F420AFF3008070B50D46E3
:100D2000044601F0ADFCEC2001F07AFC01F0EAFC95
:100D3000204601F075FC01F0E5FC284601F070FC4E
:100D400001F0E0FCBDE8704001F0BABC2DED028B73
:100D500082B00120FFF7DFFE0028FAD10820FFF75C
:100D6000DAFE0028FAD1FFF7DFFEB0EE401AF0EE0F
:100D7000601AB0EE418AF0EE618AFFF7EAFE8DED6F
:100D8000008B53EC102B03A005F0C6FE052022F0CB
:100D900089FBDEE70D0A54656D70657261747572CA
:100DA0006520256C662043205072657373757265EB
:100DB00020256C6600000000FEE700000F4A00B529
:100DC0000023C2F880320E48016821F4400101601E
:100DD000016841F480010160022002F5207209F0EF
:100DE00024FD0848C0F8AC32022009F01EFD0120A5
:100DF0001060022009F019FD136000BD0080404220
:100E00000014024000804242154810B5016886B0C7
:100E100041F002010160016801F0020105910168E1
:100E200041F0200101600068012400F020000094DE
:100E300005900320CDE9024001946946094800F07D
:100E40001DFDE00200906946074800F017FD0748C5
:100E5000C0F8AC420648C0F8804206B010BD0000A1
:100E60003038024000040240001402400080424238
:100E7000008040420F4A10B50023C2F880320E486D
:100E8000016821F440010160016841F480010160C2
:100E9000022002F5207209F0C8FC08480124C0F8BD
:100EA000AC42022009F0C1FC1460022009F0BDFC34
:100EB000136010BD00804042001402400080424296
:100EC0002DE9F041804617480024016821F44001D3
:100ED0000160016801601E2009F0A7FC0022124B8E
:100EE000124F1546012600BFC3F88052022009F0B8
:100EF0009CFCC3F880626006040ED7F82C0208B18F
:100F0000641CE4B2521CD2B2082AEDD3B8F1000F2F
:100F100004D0FFF753FF2046BDE8F081FFF7AAFF9A
:100F2000F9E7000000140240008040420080424285
:100F3000F0B504461348016821F4400101600168DE
:100F400041F480010160104B0025C3F8805202205B
:100F500009F06BFC00220D4E0127E009C6F8AC0237
:100F60006006040EC3F88072022009F05EFCC3F82C
:100F70008052022009F059FC521CD2B2082AECD34C
:100F8000F0BD000000140240008040420080424258
:100F90000D4800B5016821F440010160016841F489
:100FA00080010160094A0120C2F8AC02084BC3F875
:100FB0008002022002F52B7203F5207309F035FC44
:100FC00000201060186000BD001402400080424202
:100FD000008040420D4800B5016821F440010160E5
:100FE000016841F48001016009480123C0F88032A2
:100FF0001E2009F01AFC074A0020C2F8AC020220A9
:1010000002F52B7209F011FC136000BD00140240C0
:101010000080404200804242114810B50168002221
:1010200021F440010160016801600E4C0120C4F808
:10103000AC020D4BC3F8800207E0521CD2B2FA2A70
:1010400003D9FFF7C7FF012010BD022009F0EDFB17
:10105000D4F82C020028F0D1C3F8800210BD0000A3
:10106000001402400080424200804042704772B645
:10107000FEE7000070B5B3F5804F05D06FF070410A
:1010800040F82210002070BD50F82240084B8E8995
:101090001C40D1E9003543EA05138D6889692D02AA
:1010A00045EA06452B430B43234340F82230E9E74A
:1010B0000000F0CFF0B50C6850F82430114A13400E
:1010C000D1E90125D1E903672A433E4332434E6902
:1010D00032438E693243CE6932430E6A32434E6ADE
:1010E00032438E6A3243CE6A3243CE6B096B32434F
:1010F0000A431A43082D01D142F0400240F824204F
:101100000020F0BD8000F0FF30B500EB8202506897
:101110008D8900F04043D1E9000440EA04108C6856
:10112000240244EA054420430C8A074D05EB04548D
:1011300020430C7D6D0105EB04648969204308435D
:1011400018435060002030BD0000F0FF70B53248F9
:1011500088B00024016841F002010160016801F0DB
:1011600002010691016841F004010160006801A9D3
:1011700000F0040006900220012581E831000320E0
:101180000490264800F07AFB6803CDE9010501A927
:10119000234800F073FBFFF737FE224EC6F8B44237
:1011A000142006F52D7600F003FB3560322000F0A8
:1011B000FFFA8DF8004001226946002000F006F990
:1011C00001226946A42000F001F916208DF80000E4
:1011D00001226946802000F0F9F80C208DF800000B
:1011E00001226946882000F0F1F802226946A12018
:1011F00000F020F89DF80000302803D19DF8010090
:10120000032802D0012008B070BD43F2030106A0FC
:1012100005F082FC0020F6E730380240000402406E
:1012200000080240000041424354502049443A25FE
:10123000780D0A002DE9F04115460E460446FFF7E9
:10124000A7FE7020FFF774FEFFF7E6FEE0B2FFF79F
:101250006FFEFFF7E1FEFFF79BFE7120FFF768FED0
:10126000FFF7DAFE00246F1E09E0BC4201D0012026
:1012700000E00020FFF724FE3055641CE4B2AC42CD
:10128000F3D3BDE8F041FFF7A5BE00002DE9F1471B
:101290004B4E00244FF00A0A307881B0401CC0B297
:1012A000B0FBFAF20AFB1201DFF818812746307012
:1012B00009B10A2867D2012201A90220FFF7BAFF6B
:1012C0009DF8040001075ED000F00F0106295AD2F4
:1012D000FF208840C04340F0C000454688F8200009
:1012E00001274FF0000900BF95F8200007FA04F12C
:1012F00008423BD034480422694630F81400FFF716
:1013000099FF95F830009DF80010C0079DF8010086
:1013100001F00F010ED000EB012105EB4400C1826A
:101320009DF802209DF8031002F00F0201EB02214C
:1013300081810FE000EB0120C0F5F07105EB440066
:1013400081819DF802209DF8031002F00F0201EB4D
:101350000221C1829DF800000821B1EB101F05D0C9
:1013600005EB4400A0F81690A0F80C90641CE4B2C1
:10137000052CB9D3A889012718B9E88A08B98DF8CE
:10138000049086F800909DF80400C00610D198F8EB
:101390002000010602D520F0800007E04FF6FF7123
:1013A000A8F80C10A8F8161000F0E00088F820004B
:1013B0003078F02801D986F800A03846BDE8FC87CF
:1013C0006802002070020020EC4505082DE9F0417C
:1013D00016460F4604460025FFF7DAFD7020FFF79A
:1013E000A7FDFFF719FEE0B2FFF7A2FDFFF714FE1D
:1013F000002408E0385DFFF79BFDFFF70DFE0500B8
:1014000003D1641CE4B2B442F4D3FFF7E3FD2846F1
:10141000BDE8F0812DE9F0433B4889B00024016824
:1014200041F002010160016801F0020107910168C9
:1014300041F0040101600068022600F004000790FA
:1014400001AA012503270096DFF8C09082E8B000CA
:101450006946484600F012FA6803CDE9000569467E
:101460002B4800F00BFAFFF7CFFCDFF8A880C8F894
:10147000B4420A2000F09CF9C8F8B4520A2000F0E7
:1014800097F903970096CDE901546946484600F064
:10149000F5F9642000F08CF9042205A948F2401007
:1014A00000F04EF88DF8184005A91BA005F034FB9C
:1014B0001CA105A8FEF740FF08BB48F240058DF8C7
:1014C0001460012205A9284600F048F9012205A967
:1014D000E81D00F035F89DF81410602905D213A01E
:1014E00005F01AFB012000F011F90A2000F060F964
:1014F0008DF81440012205A9284600F02FF909B003
:101500000020BDE8F08300003038024000040240B3
:1015100000080240000041424354502049443A250B
:10152000730D0A00393134370000000044656661EC
:10153000756C74205665723A25640D0A000000002F
:101540002DE9F04115460E460446FFF721FD2820FF
:10155000FFF7EEFCFFF760FD200AFFF7E9FCFFF75D
:101560005BFDE0B2FFF7E4FCFFF756FDFFF710FD6F
:101570002920FFF7DDFCFFF74FFD00246F1E09E077
:10158000BC4201D0012000E00020FFF799FC30555B
:10159000641CE4B2AC42F3D3BDE8F041FFF71ABDDE
:1015A0002DE9F147554E00244FF00A0A307885B0F6
:1015B000401CC0B2B0FBFAF20AFB1201504DA0462B
:1015C000307009B10A286ED248F24E19012205A9DD
:1015D0004846FFF7B5FF00278DF8007001226946E5
:1015E000484600F0BBF89DF8140001075BD000F0FE
:1015F0000F01062957D2FF2088408DF80000C04314
:1016000095F8209040F0C00085F82000A889A882B5
:10161000E88AE8834FF0010895F8201008FA04F0F2
:10162000014225D03748042201A930F81400FFF701
:1016300087FF95F830009DF80510C0079DF804005D
:1016400000EB012105EB44000AD0C1829DF8061091
:101650009DF8072001EB0221C1F54871818107E067
:1016600081819DF806109DF8072001EB0221C182BF
:10167000641CE4B2052CCFD32349AA894FF001089A
:101680000B8828469A4203D8C28A49888A4209D9D7
:101690009DF8141001F00F0101290BD9C189818136
:1016A000018BE98237709DF8140000F08F008028CC
:1016B0000AD01AE0818A8181C18BC18280218DF894
:1016C000141085F82090EEE795F82000010603D568
:1016D00020F0800085F820004FF6FF7025F80C0FF1
:1016E0006881287D00F0E00028753078F02801D965
:1016F00086F800A006B04046BDE8F08769020020E9
:1017000070020020AE4605080003002008B5002145
:101710008DF800108DF801000F4800BF435C9DF864
:101720000020491C1A44C9B28DF80020B829F5D30D
:10173000D0B2C043401C8DF80000B822064948F2E0
:10174000470000F00BF80222694648F2FF0000F063
:1017500005F8002008BD0000F64505082DE9F04118
:1017600016460F4604460025FFF712FC2820FFF717
:10177000DFFBFFF751FC200AFFF7DAFBFFF74CFC19
:10178000E0B2FFF7D5FBFFF747FC002408E0385D27
:10179000FFF7CEFBFFF740FC050003D1641CE4B269
:1017A000B442F4D3FFF716FC2846BDE8F0810000F0
:1017B00070B5044600F044F90546601C02D00448A8
:1017C0000078044400F03CF9401BA042FAD370BDFD
:1017D000740000202DE9F04186B014216846FEF720
:1017E00099FD20488168002939D1012181601E4876
:1017F0000024016841F00101016000684FF4805845
:1018000000F001000C27CDF80080CDE9047003261C
:1018100002250396CDE901546946144800F02EF8DC
:101820004FF68070CDE9000502AA694682E8D00033
:101830000F4800F023F84CF23370CDE9000502AAFE
:10184000694682E8D0000B4800F018F802AA694601
:1018500082E8D000CDE90085074800F00FF806B017
:10186000BDE8F081640000203838024000140240D6
:1018700000100240000C0240001802402DE9F84F11
:1018800000224FF0010803254FF00F0E0B6808FAF5
:1018900002F42340A3426ED14E68012E05D0022EE1
:1018A00003D0112E01D0122E12D186684FEA420CBD
:1018B00005FA0CF7BE43CF6807FA0CF73743876089
:1018C0004668A6430C79C4F3001494403443446042
:1018D000C668570005FA07FC8C6826EA0C06BC406F
:1018E0003443C4604C68022C01D0122C13D1D408AC
:1018F00000EB8404A346D4F8209054074FEAD46A3E
:101900000EFA0AF629EA06090E6906FA0AF646EA06
:101910000906CBF8206006680C7926EA0C0604F06C
:101920000304BC40344304604C68E40065D5364C85
:10193000266846F480462660246822F0030604F4F4
:1019400080440094314C3444A446D4F808489607A7
:10195000370F0EFA07F6B4432D4EB04201D10026E0
:1019600024E02C4EB04201D101261FE02A4EB042A5
:1019700002D102261AE040E0284EB04201D10326EF
:1019800014E0274EB04201D104260FE0254EB042AC
:1019900001D105260AE0244EB04201D1062605E019
:1019A000224EB04201D1072600E00826BE40264361
:1019B000CCF808681E4E34684F689C43FF0300D57E
:1019C0001C4334601A4C241D26684F689E43BF0395
:1019D00000D51E432660164E083634684F689C4377
:1019E000FF0200D51C433460114E0C3634684F683A
:1019F0009C43BF0200D51C433460521C102AFFF4E4
:101A000045AFBDE8F88F0000443802400030014087
:101A1000000002400004024000080240000C0240A6
:101A2000001002400014024000180240001C024056
:101A3000003C01400AB1816170470904FBE70000E6
:101A400001488068704700007400002002488168E7
:101A50000278114481607047740000200B4810B573
:101A6000016841F400710160016841F48061016026
:101A7000016841F480710160032000F08DF80020BE
:101A800000F006F800F03EF8002010BD003C0240D7
:101A900010B5014688B00022362000F05DF83620EF
:101AA00000F04CF813480024016841F01001016077
:101AB000006805A900F010000690684600F018F9CB
:101AC00000F036F90C494000B0FBF1F10C480B4A2C
:101AD000491E026040F2E732C0E90324C0E9011464
:101AE00000F053FB10B1012008B010BD044800F015
:101AF00068FBF9E74038024040420F000010004008
:101B0000A00300200C4882B0016841F480410160CC
:101B1000006800F4804000900748001F016841F011
:101B2000805101600068002200F0805000900F2179
:101B3000901E02B000F010B844380240002809DBC3
:101B400000F01F02012191404009800000F1E020D7
:101B5000C0F8001170470000F0B40E4B1B680C4633
:101B6000C3F30223C3F10705042D00D90425191D71
:101B7000072901D2002300E0DB1E012606FA05F149
:101B8000491E214099409E40761E16403143F0BCCC
:101B900004F0D2BF0CED00E0064900F0070208682F
:101BA0004FF6FF03184040EA0220034A1043086042
:101BB000704700000CED00E00000FA052DE9F04749
:101BC0000E46050065D0DFF81481D8F80000F7B2A2
:101BD00000F00F00B04207D288F80070D8F800007B
:101BE00000F00F00B04254D128683D4C810712D557
:101BF000400703D5206840F4E050206028780007B3
:101C000003D5206840F4604020602068A96820F077
:101C1000F000084320602878C0072DD0304968685C
:101C20000839012812D0022813D0032811D00968DE
:101C3000890700292DDA216821F003010143216081
:101C4000FFF7FEFE814641F2883A0EE009688903FB
:101C5000EFE709688901ECE7FFF7F2FEA0EB090165
:101C6000514502D90320BDE8F0872068696800F07B
:101C70000C00B0EB810FEFD1D8F80010404601F016
:101C80000F01B14207D90770006800F00F00B042A1
:101C900001D00120E7E72878400705D52068E968EA
:101CA00020F4E050084320602878000706D520681B
:101CB000296920F4604040EAC100206000F058F833
:101CC0002168084AC1F30311515CC8400649086005
:101CD00006480068FFF7DCFE0020C4E7003C024035
:101CE0000838024098C702088000002078000020D1
:101CF0000F2202600C4A136803F003034360136869
:101D000003F0F0038360136803F4E053C3601268C8
:101D10004FF4E05303EAD20202610448006800F085
:101D20000F0008607047000008380240003C024085
:101D30000448054900680968044AC1F38221515CDE
:101D4000C84070478000002008380240A8C7020839
:101D50000448054900680968044AC1F34231515CEE
:101D6000C84070478000002008380240A8C7020819
:101D7000154810B5006810F00C02144813D041103B
:101D8000042A0FD0082A0ED10F4C241F2268236882
:101D900002F03F025B0207D52068C0F38810A0FB69
:101DA000010106E0084610BD2168C1F38811A1FBBE
:101DB00000010023FEF764FA2168C1F30141491CC8
:101DC0004900B0FBF1F010BD083802400024F400D7
:101DD0002DE9F84F04006ED02078DFF83C93C0075F
:101DE000A9F104054AD009F104000168C1F3810199
:101DF000012908D00068C0F3810002280AD1D9F86F
:101E00000000400206D52868800337D560680028A6
:101E1000E1D033E06068B0F5803F10D0B0F5A02F7E
:101E2000286810D020F480302860286820F48020B2
:101E300028606068A8B1FFF703FE06460DE0286839
:101E400040F48030F4E740F480202860F7E700BFDA
:101E5000FFF7F6FD801B642873D828688003F7D548
:101E60000CE0FFF7EDFD064605E000BFFFF7E8FDDB
:101E7000801B6428F0D828688003F7D42078DFF826
:101E80009C8280074FF0000A3ED5A348001D0168E0
:101E900011F00C0F08D00068C0F3810002280BD1AC
:101EA000D9F80000400207D42868800716D5E068FA
:101EB000012800D112E02BE1E068B8B10120C8F898
:101EC0000000FFF7BDFD064605E000BFFFF7B8FDC7
:101ED000801B0228C0D828688007F7D528682169A8
:101EE00020F0F80040EAC10028600DE0C8F800A02A
:101EF000FFF7A6FD064604E0FFF7A2FD801B0228BF
:101F00001FD828688007F7D42078000722D5824E92
:101F100083486169703671B101210160FFF790FD5E
:101F2000074604E0FFF78CFDC01B022809D8306883
:101F30008007F7D50EE0C0F800A0FFF781FD074647
:101F400005E082E0FFF77CFDC01B02287DD83068E9
:101F50008007F7D42078400768D5DFF8BCB10027A8
:101F60000BF13C0BDBF80000C0000BD4DBF80010D9
:101F700041F08051CBF80010DBF80000012700F0A1
:101F800080500090674E3068C00510D4306840F42F
:101F900080703060FFF754FD009005E0FFF750FDC2
:101FA0000099401A022850D83068C005F6D55A4E1C
:101FB000A0686C3601280FD00528306810D020F0BA
:101FC00001003060306820F004003060A068B8B1D3
:101FD000FFF736FD00900FE0306840F00100F4E7B5
:101FE00040F004003060F7E7FFF72AFD0099411A3E
:101FF00041F28830814266D830688007F4D50EE01F
:10200000FFF71EFD009007E0FFF71AFD0099411A47
:1020100041F28830814256D830688007F4D42FB11D
:10202000DBF8001021F08051CBF80010A069C8B394
:102030003949091D0968C1F3810102294AD00228E2
:10204000504607D0C8F8600000E03CE0FFF7F8FC1D
:1020500004463BE04746C8F86000FFF7F1FC06463F
:1020600005E000BFFFF7ECFC801B02282BD8286896
:102070008001F7D4D4E907010843A16A2A4A490834
:1020800002EB0141626A41EA8211084394F82C1084
:1020900040EA0161C9F8001001203866FFF7D0FC62
:1020A000044606E036E000BFFFF7CAFC001B02282A
:1020B00009D828688001F7D52CE000BFFFF7C0FCE5
:1020C000001B022802D90320BDE8F88F2868800190
:1020D000F4D41FE00128F7D0D9F80000E26900F439
:1020E0008001914214D1226A00F03F0191420FD148
:1020F00047F6C071626A0140914209D1A26A00F4B8
:102100004031914204D1E16A00F07060884201D010
:102110000120D9E70020D7E70438024000004742F9
:10212000800E4742007000400000FFFF70B515466A
:102130000E46040003D094F8490010B107E00120D6
:1021400070BD002084F84800204600F01AF804F121
:1021500008012068FEF7AEFF3146A2682068FEF74E
:10216000D3FFD4E901022946236BFEF783FFA16860
:10217000206850F8212042F0010240F82120002080
:1021800070BDFFF727BB7047704710B5040003D040
:1021900094F83D0010B107E0012010BD002084F844
:1021A0003C00204600F00CF8022084F83D00211D80
:1021B000206803F033FD012084F83D00002010BDAD
:1021C00070470168CA6842F00102CA60006881680D
:1021D00001F00701062903D0016841F00101016007
:1021E00000207047704770B50446006801694FF0E1
:1021F0000005C943890715D4C168C943890711D4AB
:10220000E91E01610120207720688069800720464F
:1022100002D0FFF7E7FF04E000F098F8204600F056
:1022200096F8257720680169C943490717D4C16822
:10223000C943490713D46FF00401016102202077DC
:102240002068806910F4407F204602D0FFF7CAFF63
:1022500004E000F07BF8204600F079F8257720684C
:102260000169C943090716D4C168C943090712D4D3
:102270006FF008010161042020772068C0698007A1
:10228000204602D0FFF7AEFF04E000F05FF82046E2
:1022900000F05DF8257720680169C943C90617D4A5
:1022A000C168C943C90613D46FF010010161082049
:1022B00020772068C06910F4407F204602D0FFF7E5
:1022C00091FF04E000F042F8204600F040F8257746
:1022D00020680169C943C90708D1C168C943C90752
:1022E00004D1891E0161204600F032F8206801699E
:1022F000C943090609D4C168C943090605D46FF06A
:10230000800101612046FFF73EFF20680169C94353
:10231000490609D4C168C943490605D46FF0400194
:102320000161204600F01EF820680169C943890652
:102330000BD4C168C943890607D46FF0200101613D
:102340002046BDE87040FFF71FBF70BD7047704763
:1023500000680349884201D1FFF778BB704700004D
:1023600000100040704770B5040004D094F83900A4
:10237000002510B106E0012070BD84F838502046D9
:1023800000F022F8242084F839002068C16821F484
:102390000051C160204604F0F1FA2068016921F47F
:1023A000904101612068416921F02A014161206862
:1023B000C16841F40051C160E563202084F8390010
:1023C00084F83A00002070BD10B586B00446142190
:1023D0006846FDF79FFF14492068884221D11348C1
:1023E0000021026842F010020260006800F0100054
:1023F00005900E481438026842F00102026000683D
:1024000000F0010005904FF4C06000900220CDE97B
:102410000101032003900720049069460448FFF758
:102420002DFA06B010BD00000010014044380240F3
:10243000000002402DE9F843044690F839001F4699
:1024400016460D46202850D1B5B1AEB194F83800EB
:1024500001284AD0012084F838004FF00008C4F861
:102460003C80212084F83900FFF7EAFAA6848146EF
:10247000E68484F8388026E00120BDE8F883E08C0B
:10248000401EE084A0684B46B0F5805F4FF000022C
:102490004FF080012046009703D004F003FBE8B919
:1024A0000DE004F0FFFAC8B928882168C0F30800DD
:1024B0004860206908B16D1C05E0AD1C03E021688F
:1024C00015F8010B4860E08C0028D8D14B4600225B
:1024D00040212046009704F0E5FA08B10320CCE73C
:1024E000202084F839000020C7E70220C5E7FEE776
:1024F00070B50D4C0025C4F8BC520C48016821F0A1
:1025000040610160016841F080610160C4F8B4522B
:10251000022004F52D7408F088F90120A060022043
:1025200008F083F9A56070BD0080424200140240AB
:102530000E4810B5016886B041F0200101600068C6
:10254000012400F0200005904FF42040CDE9000464
:102550000220CDE9024069460548FFF78FF905489A
:10256000C0F8B442C0F8BC4206B010BD30380240DA
:10257000001402400080424270B50D4C0025C4F8A2
:10258000BC520C48016821F040610160016841F0D3
:10259000806101600126C4F8B462022004F52D7444
:1025A00008F043F9A660022008F03FF9A56070BD6D
:1025B00000804242001402402DE9F047814616484F
:1025C0000024016821F04061016001680160134E40
:1025D000254627464FF00108C6F8BC72022008F0D5
:1025E00024F9C6F8BC826006040ED6F8340208B19D
:1025F000641CE4B2012008F018F96D1CEDB2082D3E
:10260000EAD3B9F1000F04D0FFF772FF2046BDE80E
:10261000F087FFF7B1FFF9E7001402400080424263
:102620002DE9F04106461448016821F0406101603F
:10263000016841F080610160104C0027C4F8BC7251
:102640003D464FF00108F009C4F8B4027006060ECA
:10265000022008F0EAF8C4F8BC82022008F0E5F88D
:10266000C4F8BC72022008F0E0F86D1CEDB2082D31
:10267000E9D3BDE8F081000000140240008042422E
:1026800070B50D48016821F040610160016841F0BA
:1026900080610160094C0120C4F8B402C4F8BC0296
:1026A000042004F52D7408F0C0F8002525600420EE
:1026B00008F0BBF8A56070BD0014024000804242E3
:1026C0000E4810B5016821F040610160016841F0D9
:1026D000806101600A4C0020C4F8BC02C4F8B40256
:1026E000042004F52D7408F0A0F80120A0602060FB
:1026F000BDE81040042008F098B800000014024023
:102700000080424270B512480024016821F0406107
:102710000160016801600F4D0126C5F8B4623046C2
:1027200008F083F8C5F8BC62012008F07EF807E0E5
:10273000641CE4B2FA2C03D9FFF7C2FF012070BD7C
:10274000D5F834020028F3D1C5F8BC0270BD0000F2
:10275000001402400080424270B50D4C0025C4F8C0
:10276000A0520C48016821F440210160016841F445
:1027700080210160C4F8A452022004F5287408F0F6
:1027800054F801202060022008F04FF8256070BD49
:1027900000804042000402400E4810B5016886B037
:1027A00041F0020101600068012400F00200059080
:1027B0004FF44070CDE900040220CDE902406946A3
:1027C0000548FFF75BF80548C0F8A442C0F8A042EE
:1027D00006B010BD30380240000402400080404284
:1027E00070B50D4C0025C4F8A0520C48016821F4C6
:1027F00040210160016841F4802101600126C4F894
:10280000A462022004F5287408F00FF82660022064
:1028100008F00BF8256070BD0080404200040240C3
:102820002DE9F047814616480024016821F4402133
:10283000016001680160134E254627464FF00108EC
:10284000C6F8A072022007F0F0FFC6F8A08260066A
:10285000040ED6F8240208B1641CE4B2012007F08B
:10286000E4FF6D1CEDB2082DEAD3B9F1000F04D0DE
:10287000FFF772FF2046BDE8F087FFF7B1FFF9E7E9
:1028800000040240008040422DE9F0410646144811
:10289000016821F440210160016841F48021016058
:1028A000104C0027C4F8A0723D464FF00108F00913
:1028B000C4F8A4027006060E022007F0B6FFC4F8A2
:1028C000A082022007F0B1FFC4F8A072022007F036
:1028D000ACFF6D1CEDB2082DE9D3BDE8F08100001E
:1028E000000402400080404270B50D48016821F4A8
:1028F00040210160016841F480210160094C012000
:10290000C4F8A402C4F8A002042004F5287407F057
:102910008CFF00256560042007F087FF256070BDEF
:1029200000040240008040420E4810B5016821F4C6
:1029300040210160016841F4802101600A4C0020BF
:10294000C4F8A002C4F8A402042004F5287407F017
:102950006CFF012020606060BDE81040042007F09B
:1029600064BF0000000402400080404270B512487D
:102970000024016821F440210160016801600F4DCD
:102980000126C5F8A462304607F04FFFC5F8A062E3
:10299000012007F04AFF07E0641CE4B2FA2C03D9D7
:1029A000FFF7C2FF012070BDD5F824020028F3D143
:1029B000C5F8A00270BD0000000402400080404243
:1029C000142020F06FFDFBE770B50B49064600248C
:1029D00008884D8821464543204602F085FC02F0D8
:1029E000F5FDB0B24FF0D84103E000BFA1F8800080
:1029F000641CAC42FAD370BD000300202DE9F04FF7
:102A000033492C240A4688712A2592882B2645F2C0
:102A1000105B4FF4305E4FF448774FF0F00949F205
:102A2000413A4FF4A07845F2103C4FF4F07358B19E
:102A3000A1F80080A1F80290524501D0624529D149
:102A40000C814D818E8139E0A1F80090A1F80280BF
:102A5000524501D0624508D10C814D818E8162457D
:102A600031D1A1F800804B802DE05A4508D1A1F862
:102A700008E04FF4285048814FF42C50888106E03C
:102A8000A2F5C85063381ED10C814E818D810B8018
:102A90004F8018E05A4508D1A1F808E04FF42850BB
:102AA00048814FF42C50888106E0A2F5C850633865
:102AB00004D10C814D818E810F804B80624502D103
:102AC0000B80A1F80280BDE8F04F002002F030BB7F
:102AD000000300202DE9FE4F161ACDE900104FF03B
:102AE00000085D1A47464FF0FF30002E02DD4FF020
:102AF000010102E003D14FF000018B4602E0834662
:102B0000C6F10006002D02DD4FF0010002E003D106
:102B10004FF00000824602E08246C5F10005AE4259
:102B200001DD344600E02C46601C4FF000090290A5
:102B300018E0009881B2019880B200F019F8B04412
:102B40002F44A04504DD0198A8EB040858440190E7
:102B5000A74203DD00983F1B5044009009F101009B
:102B60001FFA80F902998945E3DDBDE8FE8F000078
:102B700000B502F0B9FB02F029FD03484FF0D8413F
:102B80000088A1F8800000BD640000202DE9FC4F02
:102B900080460025144603200F46A0EB440649E07A
:102BA000381B81B208EB050A01901FFA8AF0FFF783
:102BB000DFFF781B81B208EB040900901FFA89F04F
:102BC000FFF7D6FF07EB050B1FFA8BF11FFA89F011
:102BD000FFF7CEFF07EB04091FFA89F11FFA8AF00D
:102BE000FFF7C6FFA8EB050A1FFA89F11FFA8AF062
:102BF000FFF7BEFFA8EB04091FFA8BF11FFA89F05B
:102C0000FFF7B6FF019881B21FFA8AF0FFF7B0FF15
:102C1000009881B21FFA89F0FFF7AAFF6D1C002E01
:102C200003DA06EB8506B61D04E0281B06EB8006DA
:102C3000641E0A36A542B3DDBDE8FC8F2DE9F041E4
:102C4000354C90460D460246060AA18820462F0ABA
:102C50004089A1F51343413B0BD0A1F5A643103B9E
:102C600007D0B3F5007310D0A1F5C853633B25D04E
:102C700048E002F09EFC304602F08FFCD0B202F039
:102C80008CFCA08902F095FC36E002F092FC304604
:102C900002F083FC6089401C80B202F08AFCD0B252
:102CA00002F07BFCA08902F084FC384602F075FC3F
:102CB000A089401C80B202F07CFC20E0A17919B907
:102CC0002188891A491E8AB202F073FC160A30461E
:102CD00002F063FCD0B202F060FC304602F05DFC12
:102CE000D0B202F05AFCA08902F063FC384602F030
:102CF00054FCE8B202F051FC384602F04EFCE8B257
:102D000002F04BFC4FF0D840218920F87E1FA0F83C
:102D10000280BDE8F0810000000300202DE9F04FA3
:102D2000FF4895B00025016841F00201016000688C
:102D30004FF4004B00F0020000900120CDE910B0EC
:102D400012900320139010A9F648FEF797FDF6485D
:102D5000F6494FF02044C0E900410621C0E90215C0
:102D60001021C0E9045185610902C561C0E909511A
:102D70008900C0E90B5189014563C0E90E510F205C
:102D8000CDE909053C200B900920CDE9020508207A
:102D90000F950490059502AA09A90895E248FFF746
:102DA000C5F93220FEF704FDD32002F002FC02F048
:102DB0008DF9DD4A5032908002F088F9908002F05F
:102DC00085F94FF6FF7A0AEA0020908002F07EF93A
:102DD000918849F241390843908045F2103645F216
:102DE000105541F66317484549D0D42002F0E1FB65
:102DF00002F06CF9908002F069F9908002F066F9B7
:102E00000AEA0020D046908002F060F991880843D9
:102E10009080B04233D04FF45A4002F0CAFB02F027
:102E200055F990804FF45B4002F0C3FB02F04EF97D
:102E300008EA002090804FF45C4002F0BAFB02F0F8
:102E400045F9918808439080584501D1958016E056
:102E5000A84214D0A12002F0ACFB02F037F9908018
:102E600002F034F908EA0020908002F02FF99188EE
:102E70000843A0F5AE419080613900D1978090461B
:102E80009188ABA003F048FEB8F8040048457CD117
:102E9000CF2002F08EFB002002F07FFBC12002F069
:102EA0007CFB302002F079FBED2002F082FB6420F5
:102EB00002F073FB032002F070FB122002F06DFBA6
:102EC000812002F06AFBE82002F073FB852002F00B
:102ED00064FB102002F061FB7A2002F05EFBCB2045
:102EE00002F067FB392002F058FB2C2002F055FB62
:102EF000002002F052FB342002F04FFB022002F0CF
:102F00004CFBF72002F055FB202002F046FBEA20A4
:102F100002F04FFB002002F040FB002002F03DFBDE
:102F2000C02002F046FB1B2002F037FBC12002F05C
:102F300040FB012002F031FBC52002F03AFB3020BB
:102F400002F02BFB302002F028FBC72002F031FBFF
:102F5000B72002F022FB362002F02BFB482002F0C3
:102F60001CFB3A2002F025FB552002F016FBB12095
:102F700002F01FFB002002F010FB1A2002F00DFBF4
:102F8000B62002F016FB0A2000E097E002F005FBF5
:102F9000A22002F002FBF22002F00BFB002002F064
:102FA000FCFA262002F005FB012002F0F6FAE020F0
:102FB00002F0FFFA0F2002F0F0FA2A2002F0EDFAF8
:102FC000282002F0EAFA082002F0E7FA0E2002F0C8
:102FD000E4FA082002F0E1FA542002F0DEFAA92017
:102FE00002F0DBFA432002F0D8FA0A2002F0D5FA08
:102FF0000F2002F0D2FA002002F0CFFA002002F0F7
:10300000CCFA002002F0C9FA002002F0C6FAE12052
:1030100002F0CFFA002002F0C0FA152002F0BDFA4B
:10302000172002F0BAFA072002F0B7FA112002F0D6
:10303000B4FA062002F0B1FA2B2002F0AEFA5620C4
:1030400002F0ABFA3C2002F0A8FA052002F0A5FA43
:10305000102002F0A2FA0F2002F09FFA3F2002F0A7
:103060009CFA3F2002F099FA0F2002F096FA2B20EA
:1030700002F09FFA002002F090FA002002F08DFA90
:10308000012002F08AFA3F2002F087FA2A2002F09B
:1030900090FA002002F081FA002002F07EFA00206F
:1030A00002F07BFAEF2002F078FA112002F081FAA8
:1030B0007820FEF77DFB292001F010BFB0427CD1C3
:1030C000ED2002F076FA012002F067FAFE2002F00D
:1030D00064FAEE2002F06DFADE2002F05EFA2120A2
:1030E00002F05BFAF12002F064FA012002F055FAD6
:1030F000DF2002F05EFA102002F04FFAC42002F046
:1031000058FA8F2002F049FAC62002F052FA002045
:1031100002F043FAE22002F040FAE22010E0000060
:103120003038024000040240B0020020040100A038
:10313000204C43442049443A25780D0A0000000001
:1031400002F02BFAE22002F028FABF2002F031FA56
:10315000AA2002F022FAB02002F02BFA0D2002F091
:103160001CFA002002F019FA0D2002F016FA0020D5
:1031700002F013FA112002F010FA002002F00DFA0A
:10318000192002F00AFA002002F007FA212002F0CA
:1031900004FA002002F001FA2D2002F0FEF90020CE
:1031A00002F0FBF93D2002F0F8F9002002F0F5F9F9
:1031B0005D2002F0F2F9002000E0FCE302F0EDF9FE
:1031C0005D2002F0EAF9002002F0E7F9B12002F0F8
:1031D000F0F9802002F0E1F9002002F0DEF98B2006
:1031E00002F0DBF9002002F0D8F9962002F0D5F9C0
:1031F000002002F0D2F9B22002F0DBF9002002F048
:10320000CCF9002002F0C9F9022002F0C6F9002032
:1032100002F0C3F9032002F0C0F9002002F0BDF96A
:10322000B32002F0C6F9002002F0B7F9002002F046
:10323000B4F9002002F0B1F9002002F0AEF900204C
:1032400002F0ABF9002002F0A8F9002002F0A5F985
:10325000002002F0A2F9002002F09FF9002002F005
:103260009CF9002002F099F9002002F096F9002064
:1032700002F093F9002002F090F9002002F08DF99D
:10328000002002F08AF9002002F087F9002002F005
:1032900084F9002002F081F9002002F07EF900207C
:1032A00002F07BF9002002F078F9002002F075F9B5
:1032B000002002F072F9B42002F07BF98B2002F0BA
:1032C0006CF9002002F069F9962002F066F90020FE
:1032D00002F063F9A12002F060F9002002F05DF92C
:1032E000B52002F066F9022002F057F9002002F042
:1032F00054F9032002F051F9002002F04EF90420A5
:1033000002F04BF9002002F048F9B62002F051F922
:10331000002002F042F9002002F03FF9B72002F04D
:1033200048F9002002F039F9002002F036F93F2078
:1033300002F033F9002002F030F95E2002F02DF99E
:10334000002002F02AF9642002F027F9002002F0A0
:1033500024F98C2002F021F9002002F01EF9AC20A3
:1033600002F01BF9002002F018F9DC2002F015F938
:10337000002002F012F9702002F00FF9002002F094
:103380000CF9902002F009F9002002F006F9EB2078
:1033900002F003F9002002F000F9DC2002F0FDF851
:1033A000002002F0FAF8B82002F003F9002002F041
:1033B000F4F8002002F0F1F8002002F0EEF800200E
:1033C00002F0EBF8002002F0E8F8002002F0E5F847
:1033D000002002F0E2F8002002F0DFF8BA2002F04C
:1033E000E8F8242002F0D9F8002002F0D6F80020F6
:1033F00002F0D3F8002002F0D0F8C12002F0D9F892
:10340000202002F0CAF8002002F0C7F8542002F091
:10341000C4F8002002F0C1F8FF2002F0BEF800203E
:1034200002F0BBF8C22002F0C4F80A2002F0B5F89E
:10343000002002F0B2F8042002F0AFF8002002F001
:10344000ACF8C32002F0B5F83C2002F0A6F800204A
:1034500002F0A3F83A2002F0A0F8002002F09DF854
:10346000392002F09AF8002002F097F8372002F095
:1034700094F8002002F091F83C2002F08EF8002031
:1034800002F08BF8362002F088F8002002F085F870
:10349000322002F082F8002002F07FF82F2002F0A4
:1034A0007CF8002002F079F82C2002F076F8002059
:1034B00002F073F8292002F070F8002002F06DF895
:1034C000262002F06AF8002002F067F8242002F0BB
:1034D00064F8002002F061F8242002F05EF8002079
:1034E00002F05BF8232002F058F8002002F055F8B3
:1034F0003C2002F052F8002002F04FF8362002F093
:103500004CF8002002F049F8322002F046F8002082
:1035100002F043F82F2002F040F8002002F03DF8BE
:103520002C2002F03AF8002002F037F8292002F0AF
:1035300034F8002002F031F8262002F02EF80020A6
:1035400002F02BF8242002F028F8002002F025F8E1
:10355000242002F022F8002002F01FF8232002F0BD
:103560001CF8002002F019F8C42002F022F86220B2
:1035700002F013F8002002F010F8052002F00DF818
:10358000002002F00AF8842002F007F8002002F080
:1035900004F8F02002F001F8002001F0FEFF1820EE
:1035A00001F0FBFF002001F0F8FFA42001F0F5FF7F
:1035B000002001F0F2FF182001F0EFFF002001F0E1
:1035C000ECFF502001F0E9FF002001F0E6FF0C20A5
:1035D00001F0E3FF002001F0E0FF172001F0DDFF24
:1035E000002001F0DAFF952001F0D7FF002001F064
:1035F000D4FFF32001F0D1FF002001F0CEFFE62040
:1036000001F0CBFF002001F0C8FFC52001F0D1FF81
:10361000322001F0C2FF002001F0BFFF442001F082
:10362000BCFF002001F0B9FF652001F0B6FF0020CB
:1036300001F0B3FF762001F0B0FF002001F0ADFFF4
:10364000882001F0AAFF002001F0A7FFC62001F0AA
:10365000B0FF202001F0A1FF002001F09EFF172005
:1036600001F09BFF002001F098FF012001F095FF81
:10367000002001F092FFC72001F09BFF002001F025
:103680008CFF002001F089FF002001F086FF002060
:1036900001F083FFC82001F08CFF002001F07DFFC6
:1036A000002001F07AFF002001F077FF002001F0F8
:1036B00074FFC92001F07DFF002001F06EFF0020A3
:1036C00001F06BFF002001F068FF002001F065FFB2
:1036D000002001F062FF002001F05FFF002001F0F8
:1036E0005CFF002001F059FF002001F056FF002090
:1036F00001F053FF002001F050FF002001F04DFFCA
:10370000002001F04AFF002001F047FF002001F0F7
:1037100044FF002001F041FFE02001F04AFF1620A5
:1037200001F03BFF002001F038FF1C2001F035FFC5
:10373000002001F032FF212001F02FFF002001F0D6
:103740002CFF362001F029FF002001F026FF462043
:1037500001F023FF002001F020FF522001F01DFFA7
:10376000002001F01AFF642001F017FF002001F093
:1037700014FF7A2001F011FF002001F00EFF8B20D2
:1037800001F00BFF002001F008FF992001F005FF78
:10379000002001F002FFA82001F0FFFE002001F050
:1037A000FCFEB92001F0F9FE002001F0F6FEC42075
:1037B00001F0F3FE002001F0F0FECA2001F0EDFE62
:1037C000002001F0EAFED22001F0E7FE002001F027
:1037D000E4FED92001F0E1FE002001F0DEFEE02051
:1037E00001F0DBFE002001F0D8FEF32001F0D5FE51
:1037F000002001F0D2FEE12001F0DBFE162001F0F6
:10380000CCFE002001F0C9FE1C2001F0C6FE002005
:1038100001F0C3FE222001F0C0FE002001F0BDFE39
:10382000362001F0BAFE002001F0B7FE452001F07D
:10383000B4FE002001F0B1FE522001F0AEFE0020E7
:1038400001F0ABFE642001F0A8FE002001F0A5FE0F
:103850007A2001F0A2FE002001F09FFE8B2001F0F3
:103860009CFE002001F099FE992001F096FE0020B8
:1038700001F093FEA82001F090FE002001F08DFEE3
:10388000B92001F08AFE002001F087FEC42001F07B
:1038900084FE002001F081FECA2001F07EFE00209F
:1038A00001F07BFED22001F078FE002001F075FED1
:1038B000D82001F072FE002001F06FFEE02001F040
:1038C0006CFE002001F069FEF32001F066FE00208E
:1038D00001F063FEE22001F06CFE052001F05DFEC8
:1038E000002001F05AFE0B2001F057FE002001F0ED
:1038F00054FE1B2001F051FE002001F04EFE34204A
:1039000001F04BFE002001F048FE442001F045FE8E
:10391000002001F042FE4F2001F03FFE002001F0A8
:103920003CFE612001F039FE002001F036FE7920D6
:1039300001F033FE002001F030FE882001F02DFE62
:10394000002001F02AFE972001F027FE002001F060
:1039500024FEA62001F021FE002001F01EFEB7206B
:1039600001F01BFE002001F018FEC22001F015FE40
:10397000002001F012FEC72001F00FFE002001F030
:103980000CFED12001F009FE002001F006FED62039
:1039900001F003FE002001F000FEDD2001F0FDFD3E
:1039A000002001F0FAFDF32001F0F7FD002001F006
:1039B000F4FDE32000E00FE301F0FBFD052001F042
:1039C000ECFD002001F0E9FD0A2001F0E6FD0020F9
:1039D00001F0E3FD1C2001F0E0FD002001F0DDFD21
:1039E000332001F0DAFD002001F0D7FD442001F082
:1039F000D4FD002001F0D1FD502001F0CEFD0020CB
:103A000001F0CBFD622001F0C8FD002001F0C5FDF2
:103A1000782001F0C2FD002001F0BFFD882001F0F8
:103A2000BCFD002001F0B9FD972001F0B6FD00209B
:103A300001F0B3FDA62001F0B0FD002001F0ADFDC6
:103A4000B72001F0AAFD002001F0A7FDC22001F07F
:103A5000A4FD002001F0A1FDC72001F09EFD002083
:103A600001F09BFDD12001F098FD002001F095FDB3
:103A7000D52001F092FD002001F08FFDDD2001F046
:103A80008CFD002001F089FDF32001F086FD00206F
:103A900001F083FDE42001F08CFD012001F07DFDAB
:103AA000002001F07AFD012001F077FD002001F0F7
:103AB00074FD022001F071FD002001F06EFD2A204E
:103AC00001F06BFD002001F068FD3C2001F065FD78
:103AD000002001F062FD4B2001F05FFD002001F0AD
:103AE0005CFD5D2001F059FD002001F056FD7420C1
:103AF00001F053FD002001F050FD842001F04DFD48
:103B0000002001F04AFD932001F047FD002001F064
:103B100044FDA22001F041FD002001F03EFDB32054
:103B200001F03BFD002001F038FDBE2001F035FD25
:103B3000002001F032FDC42001F02FFD002001F033
:103B40002CFDCD2001F029FD002001F026FDD32021
:103B500001F023FD002001F020FDDD2001F01DFD1E
:103B6000002001F01AFDF32001F017FD002001F004
:103B700014FDE52001F01DFD002001F00EFD0020E8
:103B800001F00BFD002001F008FD002001F005FD13
:103B9000022001F002FD002001F0FFFC292001F0CD
:103BA000FCFC002001F0F9FC3C2001F0F6FC0020B8
:103BB00001F0F3FC4B2001F0F0FC002001F0EDFCE3
:103BC0005D2001F0EAFC002001F0E7FC742001F028
:103BD000E4FC002001F0E1FC842001F0DEFC002088
:103BE00001F0DBFC932001F0D8FC002001F0D5FCB3
:103BF000A22001F0D2FC002001F0CFFCB32001F0A4
:103C0000CCFC002001F0C9FCBE2001F0C6FC002065
:103C100001F0C3FCC42001F0C0FC002001F0BDFC99
:103C2000CD2001F0BAFC002001F0B7FCD32001F058
:103C3000B4FC002001F0B1FCDC2001F0AEFC00205F
:103C400001F0ABFCF32001F0A8FC002001F0A5FC82
:103C5000E62001F0AEFC112001F09FFC002001F0F5
:103C60009CFC342001F099FC002001F096FC5620C9
:103C700001F093FC002001F090FC762001F08DFC17
:103C8000002001F08AFC772001F087FC002001F081
:103C900084FC662001F081FC002001F07EFC88207D
:103CA00001F07BFC002001F078FC992001F075FC0C
:103CB000002001F072FCBB2001F06FFC002001F03D
:103CC0006CFC992001F069FC002001F066FC662084
:103CD00001F063FC002001F060FC552001F05DFC68
:103CE000002001F05AFC552001F057FC002001F0A3
:103CF00054FC452001F051FC002001F04EFC432013
:103D000001F04BFC002001F048FC442001F045FC90
:103D1000002001F042FCE72001F04BFC322001F0D2
:103D20003CFC002001F039FC552001F036FC00205D
:103D300001F033FC762001F030FC002001F02DFC76
:103D4000662001F02AFC002001F027FC672001F02A
:103D500024FC002001F021FC672001F01EFC002063
:103D600001F01BFC872001F018FC002001F015FC7D
:103D7000992001F012FC002001F00FFCBB2001F0A3
:103D80000CFC002001F009FC992001F006FC002049
:103D900001F003FC772001F000FC002001F0FDFBA6
:103DA000442001F0FAFB002001F0F7FB562001F05F
:103DB000F4FB002001F0F1FB232001F0EEFB0020DA
:103DC00001F0EBFB332001F0E8FB002001F0E5FB04
:103DD000452001F0E2FB002001F0DFFBE82001F0CC
:103DE000E8FB002001F0D9FB002001F0D6FB992070
:103DF00001F0D3FB002001F0D0FB872001F0CDFBC8
:103E0000002001F0CAFB882001F0C7FB002001F070
:103E1000C4FB772001F0C1FB002001F0BEFB66204F
:103E200001F0BBFB002001F0B8FB882001F0B5FBDE
:103E3000002001F0B2FBAA2001F0AFFB002001F04E
:103E4000ACFBBB2001F0A9FB002001F0A6FB9920F0
:103E500001F0A3FB002001F0A0FB662001F09DFB18
:103E6000002001F09AFB552001F097FB002001F0A3
:103E700094FB552001F091FB002001F08EFB4420C3
:103E800001F08BFB002001F088FB442001F085FB52
:103E9000002001F082FB552001F07FFB002001F0A3
:103EA0007CFBE92001F085FBAA2001F076FB0020D5
:103EB00001F073FB002001F070FB002001F06DFBAE
:103EC000002001F076FBAA2001F067FBCF2001F073
:103ED00070FB002001F061FB002001F05EFB002080
:103EE00001F05BFB002001F058FB002001F055FBC6
:103EF000002001F052FB002001F04FFB002001F0F8
:103F00004CFB002001F049FB002001F046FB0020A3
:103F100001F043FB002001F040FB002001F03DFBDD
:103F2000002001F03AFB002001F037FB002001F0F7
:103F300034FB002001F031FBF02001F03AFB0020BF
:103F400001F02BFB502001F028FB002001F025FBA5
:103F5000002001F022FB002001F01FFBF32001F004
:103F600028FB002001F019FBF92001F022FB0620BC
:103F700001F013FB102001F010FB292001F00DFBD4
:103F8000002001F00AFB3A2001F013FB552001F05C
:103F900004FB112001F00DFB6420FDF709FC292032
:103FA00001F007FB352001F004FB002001F0F5FAD9
:103FB000512001F0FEFAFF2001F0EFFA532001F04A
:103FC000F8FA2C2001F0E9FA552001F0F2FA8220EB
:103FD00001F0E3FA2C20FDE3A8427CD14FF47043BA
:103FE0005521184601F0FCFAAA214FF2010001F018
:103FF000F7FA52214FF2020001F0F2FA08214FF2D3
:10400000030001F0EDFA01214FF2040001F0E8FA9B
:104010000D214FF4304001F0E3FA0D214BF2010085
:1040200001F0DEFA0D214BF2020001F0D9FA342141
:104030004FF4364001F0D4FA34214BF2016001F024
:10404000CFFA34214BF2026001F0CAFA0D214FF48D
:10405000314001F0C5FA0D214BF2011001F0C0FA18
:104060000D214BF2021001F0BBFA34214FF437401E
:1040700001F0B6FA34214BF2017001F0B1FA3421AB
:104080004BF2027001F0ACFA00214FF4324001F023
:10409000A7FA00214BF2012001F0A2FA00214BF215
:1040A000022001F09DFA24214FF4384001F098FAE3
:1040B00024214BF6010001F093FA24214BF6020073
:1040C00001F08EFA01214FF43F4001F089FA0F21EF
:1040D0004FF4334000E0FCE301F082FA0F214BF291
:1040E000013001F07DFA0F214BF2023001F078FA35
:1040F00034214FF4394001F073FA34214BF60110AA
:1041000001F06EFA34214BF6021001F069FA082131
:104110004FF4354001F064FA08214BF2015001F0F0
:104120005FFA08214BF2025001F05AFA03214FF4D2
:10413000424001F055FA24214FF43A4001F050FA80
:1041400024214BF6012001F04BFA24214BF60220EA
:1041500001F046FA00214FF43C4001F041FA782189
:104160004BF6014001F03CFA00214BF6024001F011
:1041700037FA00214FF43D4001F032FA78214BF636
:10418000015001F02DFA00214BF6025001F028FAFF
:1041900000214FF43E4001F023FA64214BF6016008
:1041A00001F01EFA00214FF4514001F019FA3321B9
:1041B0004DF2011001F014FA00214DF2021001F04D
:1041C0000FFA34214DF2031001F00AFA00214DF2EA
:1041D000041001F005FA3A214DF2051001F000FA41
:1041E00000214DF2061001F0FBF94A214DF20710B3
:1041F00001F0F6F900214DF2081001F0F1F95C210F
:104200004DF2091001F0ECF900214DF20A1001F015
:10421000E7F981214DF20B1001F0E2F900214DF296
:104220000C1001F0DDF9A6214DF20D1001F0D8F9C6
:1042300000214DF20E1001F0D3F9E5214DF20F10DF
:1042400001F0CEF901214DF2101001F0C9F913214E
:104250004DF2111001F0C4F901214DF2121001F0DC
:10426000BFF954214DF2131001F0BAF901214DF2BA
:10427000141001F0B5F982214DF2151001F0B0F9DA
:1042800001214DF2161001F0ABF9CA214DF21710C1
:1042900001F0A6F902214DF2181001F0A1F9002158
:1042A0004DF2191001F09CF902214DF21A1001F0A3
:1042B00097F901214DF21B1001F092F902214DF204
:1042C0001C1001F08DF934214DF21D1001F088F918
:1042D00002214DF21E1001F083F967214DF21F10EB
:1042E00001F07EF902214DF2201001F079F98421CC
:1042F0004DF2211001F074F902214DF2221001F06B
:104300006FF9A4214DF2231001F06AF902214DF258
:10431000241001F065F9B7214DF2251001F060F984
:1043200002214DF2261001F05BF9CF214DF227104A
:1043300001F056F902214DF2281001F051F9DE2169
:104340004DF2291001F04CF902214DF22A1001F032
:1043500047F9F2214DF22B1001F042F902214DF202
:104360002C1001F03DF9FE214DF22D1001F038F92D
:1043700003214DF22E1001F033F910214DF22F10D0
:1043800001F02EF903214DF2301001F029F933210B
:104390004DF2311001F024F903214DF2321001F0F9
:1043A0001FF96D214DF2331001F01AF900214FF47D
:1043B000524001F015F933214DF2012001F010F9BE
:1043C00000214DF2022001F00BF934214DF20320BF
:1043D00001F006F900214DF2042001F001F93A2123
:1043E0004DF2052001F0FCF800214DF2062001F00D
:1043F000F7F84A214DF2072001F0F2F800214DF2C2
:10440000082001F0EDF85C214DF2092001F0E8F8F8
:1044100000214DF20A2001F0E3F881214DF20B203A
:1044200001F0DEF800214DF20C2001F0D9F8A621B0
:104430004DF20D2001F0D4F800214DF20E2001F0D4
:10444000CFF8E5214DF20F2001F0CAF801214DF21D
:10445000102001F0C5F813214DF2112001F0C0F831
:1044600001214DF2122001F0BBF854214DF213202E
:1044700001F0B6F801214DF2142001F0B1F88221CB
:104480004DF2152001F0ACF801214DF2162001F09B
:10449000A7F8CA214DF2172001F0A2F802214DF22F
:1044A000182001F09DF800214DF2192001F098F834
:1044B00002214DF21A2001F093F801214DF21B2048
:1044C00001F08EF802214DF21C2001F089F8342110
:1044D0004DF21D2001F084F802214DF21E2001F062
:1044E0007FF867214DF21F2001F07AF802214DF28A
:1044F000202001F075F884214DF2212001F070F8A0
:1045000002214DF2222001F06BF8A4214DF223206C
:1045100001F066F802214DF2242001F061F8B72184
:104520004DF2252001F05CF802214DF2262001F029
:1045300057F8CF214DF2272001F052F802214DF219
:10454000282001F04DF8DE214DF2292001F048F835
:1045500002214DF22A2001F043F8F2214DF22B20E6
:1045600001F03EF802214DF22C2001F039F8FE2135
:104570004DF22D2001F034F803214DF22E2001F0F0
:104580002FF810214DF22F2001F02AF803214DF2CF
:10459000302001F025F833214DF2312001F020F8D0
:1045A00003214DF2322001F01BF86D214DF2332032
:1045B00001F016F800214FF4534001F011F83321B7
:1045C0004DF2013001F00CF800214DF2023001F003
:1045D00007F834214DF2033001F002F800214DF2CA
:1045E000043000F0FDFF3A214DF2053000F0F8FFF5
:1045F00000214DF2063000F0F3FF4A214DF2073062
:1046000000F0EEFF00214DF2083000F0E9FF5C21E0
:104610004DF2093000F0E4FF00214DF20A3000F0C5
:10462000DFFF81214DF20B3000F0DAFF00214DF267
:104630000C3000F0D5FFA6214DF20D3000F0D0FF78
:1046400000214DF20E3000F0CBFFE5214DF20F308E
:1046500000F0C6FF01214DF2103000F0C1FF132120
:104660004DF2113000F0BCFF01214DF2123000F08C
:10467000B7FF54214DF2133000F0B2FF01214DF28B
:10468000143000F0ADFF82214DF2153000F0A8FF8C
:1046900001214DF2163000F0A3FFCA214DF2173070
:1046A00000F09EFF02214DF2183000F099FF00212A
:1046B0004DF2193000F094FF02214DF21A3000F053
:1046C0008FFF01214DF21B3000F08AFF02214DF2D5
:1046D0001C3000F085FF34214DF21D3000F080FFCA
:1046E00002214DF21E3000F07BFF67214DF21F309A
:1046F00000F076FF02214DF2203000F071FF84219E
:104700004DF2213000F06CFF02214DF2223000F01A
:1047100067FFA4214DF2233000F062FF02214DF229
:10472000243000F05DFFB7214DF2253000F058FF36
:1047300002214DF2263000F053FFCF214DF22730F9
:1047400000F04EFF02214DF2283000F049FFDE213B
:104750004DF2293000F044FF02214DF22A3000F0E2
:104760003FFFF2214DF22B3000F03AFF02214DF2D3
:104770002C3000F035FFFE214DF22D3000F030FFDF
:1047800003214DF22E3000F02BFF10214DF22F307F
:1047900000F026FF03214DF2303000F021FF3321DD
:1047A0004DF2313000F01CFF03214DF2323000F0A9
:1047B00017FF6D214DF2333000F012FF00214FF44E
:1047C000544000F00DFF33214DF2014000F008FF8E
:1047D000002100E082E34DF2024000F001FF3421AD
:1047E0004DF2034000F0FCFE00214DF2044000F0C9
:1047F000F7FE3A214DF2054000F0F2FE00214DF2A5
:10480000064000F0EDFE4A214DF2074000F0E8FEC0
:1048100000214DF2084000F0E3FE5C214DF209401A
:1048200000F0DEFE00214DF20A4000F0D9FE8121A9
:104830004DF20B4000F0D4FE00214DF20C4000F090
:10484000CFFEA6214DF20D4000F0CAFE00214DF230
:104850000E4000F0C5FEE5214DF20F4000F0C0FE15
:1048600001214DF2104000F0BBFE13214DF211402A
:1048700000F0B6FE01214DF2124000F0B1FE5421CD
:104880004DF2134000F0ACFE01214DF2144000F057
:10489000A7FE82214DF2154000F0A2FE01214DF24B
:1048A000164000F09DFECA214DF2174000F098FE20
:1048B00002214DF2184000F093FE00214DF2194004
:1048C00000F08EFE02214DF21A4000F089FE012117
:1048D00000E006E34DF21B4000F082FE02214DF2A3
:1048E0001C4000F07DFE34214DF21D4000F078FEAA
:1048F00002214DF21E4000F073FE67214DF21F4071
:1049000000F06EFE02214DF2204000F069FE84218D
:104910004DF2214000F064FE02214DF2224000F0F1
:104920005FFEA4214DF2234000F05AFE02214DF219
:10493000244000F055FEB7214DF2254000F050FE16
:1049400002214DF2264000F04BFECF214DF22740D0
:1049500000F046FE02214DF2284000F041FEDE212B
:104960004DF2294000F03CFE02214DF22A4000F0B9
:1049700037FEF2214DF22B4000F032FE02214DF2C3
:104980002C4000F02DFEFE214DF22D4000F028FEBF
:1049900003214DF22E4000F023FE10214DF22F4056
:1049A00000F01EFE03214DF2304000F019FE3321CD
:1049B0004DF2314000F014FE03214DF2324000F080
:1049C0000FFE6D214DF2334000F00AFE00214FF43E
:1049D000554000F005FE33214DF2015000F000FE7D
:1049E00000214DF2025000F0FBFD34214DF2035046
:1049F00000F0F6FD00214DF2045000F0F1FD3A21E7
:104A00004DF2055000F0ECFD00214DF2065000F093
:104A1000E7FD4A214DF2075000F0E2FD00214DF282
:104A2000085000F0DDFD5C214DF2095000F0D8FD8A
:104A300000214DF20A5000F0D3FD81214DF20B50C0
:104A400000F0CEFD00214DF20C5000F0C9FDA62172
:104A50004DF20D5000F0C4FD00214DF20E5000F05B
:104A6000BFFDE5214DF20F5000F0BAFD01214DF2DE
:104A7000105000F0B5FD13214DF2115000F0B0FDC3
:104A800001214DF2125000F0ABFD54214DF21350B4
:104A900000F0A6FD01214DF2145000F0A1FD82218D
:104AA0004DF2155000F09CFD01214DF2165000F022
:104AB00097FDCA214DF2175000F092FD02214DF2F0
:104AC000185000F08DFD00214DF2195000F088FDC6
:104AD00002214DF21A5000F083FD01214DF21B50CE
:104AE00000F07EFD02214DF21C5000F079FD3421D2
:104AF0004DF21D5000F074FD02214DF21E5000F0E9
:104B00006FFD67214DF21F5000F06AFD02214DF24A
:104B1000205000F065FD84214DF2215000F060FD31
:104B200002214DF2225000F05BFDA4214DF22350F2
:104B300000F056FD02214DF2245000F051FDB72146
:104B40004DF2255000F04CFD02214DF2265000F0B0
:104B500047FDCF214DF2275000F042FD02214DF2DA
:104B6000285000F03DFDDE214DF2295000F038FDC7
:104B700002214DF22A5000F033FDF2214DF22B506C
:104B800000F02EFD02214DF22C5000F029FDFE21F7
:104B90004DF22D5000F024FD03214DF22E5000F077
:104BA0001FFD10214DF22F5000F01AFD03214DF290
:104BB000305000F015FD33214DF2315000F010FD62
:104BC00003214DF2325000F00BFD6D214DF23350B8
:104BD00000F006FD00214FF4564000F001FD3321A6
:104BE0004DF2016000F0FCFC00214DF2026000F08B
:104BF000F7FC34214DF2036000F0F2FC00214DF28D
:104C0000046000F0EDFC3A214DF2056000F0E8FC94
:104C100000214DF2066000F0E3FC4A214DF20760EE
:104C200000F0DEFC00214DF2086000F0D9FC5C21B0
:104C30004DF2096000F0D4FC00214DF20A6000F052
:104C4000CFFC81214DF20B6000F0CAFC00214DF237
:104C50000C6000F0C5FCA6214DF20D6000F0C0FC18
:104C600000214DF20E6000F0BBFCE5214DF20F601B
:104C700000F0B6FC01214DF2106000F0B1FC1321F0
:104C80004DF2116000F0ACFC01214DF2126000F019
:104C9000A7FC54214DF2136000F0A2FC01214DF25B
:104CA000146000F09DFC82214DF2156000F098FC2C
:104CB00001214DF2166000F093FCCA214DF21760FD
:104CC00000F08EFC02214DF2186000F089FC0021FA
:104CD0004DF2196000F084FC02214DF21A6000F0E0
:104CE0007FFC01214DF21B6000F07AFC02214DF2A5
:104CF0001C6000F075FC34214DF21D6000F070FC6A
:104D000002214DF21E6000F06BFC67214DF21F6026
:104D100000F066FC02214DF2206000F061FC84216D
:104D20004DF2216000F05CFC02214DF2226000F0A7
:104D300057FCA4214DF2236000F052FC02214DF2F9
:104D4000246000F04DFCB7214DF2256000F048FCD6
:104D500002214DF2266000F043FCCF214DF2276086
:104D600000F03EFC02214DF2286000F039FCDE210B
:104D70004DF2296000F034FC02214DF22A6000F06F
:104D80002FFCF2214DF22B6000F02AFC02214DF2A3
:104D90002C6000F025FCFE214DF22D6000F020FC7F
:104DA00003214DF22E6000F01BFC10214DF22F600C
:104DB00000F016FC03214DF2306000F011FC3321AD
:104DC0004DF2316000F00CFC03214DF2326000F036
:104DD00007FC6D214DF2336000F002FC55211846AE
:104DE00000F0FEFBAA214FF2010000F0F9FB522176
:104DF0004FF2020000F0F4FB08214FF2030000F034
:104E0000EFFB00214FF2040000F0EAFBCC214FF44D
:104E1000314000F0E5FB00214BF2011000F0E0FB17
:104E200005214FF4364000F0DBFB70214FF4374092
:104E300000F0D6FB70214BF2017000F0D1FB012194
:104E40004FF4384000F0CCFB03214BF6010000F09A
:104E5000C7FB03214BF6020000F0C2FB03214BF617
:104E6000030000F0BDFB02214FF43C4000F0B8FB12
:104E700000214BF6014000F0B3FB00214BF602404D
:104E800000F0AEFBD0214FF4494000F0A9FB022115
:104E90004CF6011000F0A4FB50214CF6021000F07B
:104EA0009FFB50214CF6031000F09AFB50214CF66A
:104EB000041000F095FB00214FF4545000F090FBDB
:104EC00055214FF4685000F08BFB4FF4885000F0F0
:104ED00070FB0020FCF76CFC4FF4245000F069FBE1
:104EE000B9E0B842FCD1E22000F063FB1D2000F0E5
:104EF00054FB022000F051FB042000F04EFB002088
:104F0000FCF756FCE02000F054FB012000F045FBCC
:104F10000A20FCF74DFCE02000F04BFB032000F0E2
:104F20003CFB0C20FCF744FC012000F042FB0A2073
:104F3000FCF73EFCE62000F03CFB2F2000F02DFBB0
:104F4000FF2000F02AFBFF2000F027FBB02000F03C
:104F500030FB202000F021FB002000F01EFB03208E
:104F600000F01BFB40F21F3000F017FB012000F0A7
:104F700014FB40F2DF1000F010FB002000F00DFBEE
:104F8000B42000F016FB042000F007FB40F21F40A5
:104F900000F003FB002000F000FB2E2000F0FDFAE3
:104FA000002000F0FAFA002000F0F7FA002000F0EC
:104FB000F4FA002000F0F1FAB62000F0FAFA02202C
:104FC00000F0EBFA4FF4037000F0E7FA002000F075
:104FD000E4FA172000F0E1FA152000F0DEFA0020D4
:104FE00000F0DBFA002000F0D8FAF02000F0E1FA3F
:104FF000032000F0D2FA292000F0DBFAD02000F0E4
:10500000D8FA002000F0C9FABE2000F0D2FA05203C
:1050100000F0C3FAFE2000F0C0FA012000F0BDFA53
:10502000002000F0BAFA002000F0B7FA002000F0EB
:10503000B4FAB82000F0BDFA032000F0AEFA012067
:1050400000F0ABFABA2000F0B4FA012000F0A5FAA3
:10505000642000F045F8B8F80400484505D0B04297
:1050600003D0A84201D0B84217D1D4F81C0120F0D7
:105070000F00C4F81C01D4F81C0120F47060C4F8BF
:105080001C01D4F81C0140F00300C4F81C01D4F842
:105090001C0140F40070C4F81C010020FDF7AEFCB8
:1050A000012259460448FCF7C5FC5046FDF78CFC2C
:1050B00015B0BDE8F08F0000000402400246012058
:1050C00000E05043491EC9B2FBD2704708B54FF00B
:1050D000D840B0F88000ADF80000BDF8000008BD71
:1050E00010B50246BE2000F064FA052000F055FA23
:1050F0001046FBF7D1FA9FED0C1B53EC112BFBF77D
:10510000D9F9FBF7F5FA80B200F047FA012000F078
:1051100044FAFF2000F041FA002000F03EFABDE81A
:105120001040002000F039BA666666666666044084
:10513000F0B56C4C00232146A279898841F66316AC
:10514000012A01D01AB11BE0B14202D118E0B142EC
:1051500016D1082814D2DFE800F00406080A0C0E65
:10516000101206200CE007200AE0042008E00520C9
:1051700006E0012004E0002002E0032000E002201D
:10518000A1F5134745F2103245F21055413F05D0C5
:10519000914203D0A94201D0B14277D1082812D25E
:1051A000DFE800F0110406080A0C0E1080230AE064
:1051B000402308E0C02306E0202304E0602302E04F
:1051C000A02300E0E023A94202D14FF4585000E0B0
:1051D0003620914205D0A94203D0B14201D043F01C
:1051E0000803194600F0FCF9A188B1420AD09806DC
:1051F0002088628802D5904202D303E0904201D910
:10520000228060806089A94241D100F0D2F900205B
:1052100000F0C3F96089401C80B200F0CAF9002098
:1052200000F0BBF96089801C80B200F0C2F92088D0
:10523000401EC0F30F2000F0B0F96089C01C80B29E
:1052400000F0B7F92078401EC0B200F0A6F9A0899E
:1052500000F0AFF9002000F0A0F9A089401C80B256
:1052600000F0A7F9002000F098F9A089801C80B216
:1052700000F09FF96088401EC0F30F2000F08DF908
:10528000A089C01C80B200F094F922E028E000F070
:1052900090F9002000F081F9002000F07EF92088CC
:1052A000401EC0F30F2000F078F92078401EC0B2F5
:1052B00000F073F9A08900F07CF9002000F06DF98E
:1052C000002000F06AF96088401EC0F30F2000F053
:1052D00064F9A078BDE8F040401EC0B200F05DB9AE
:1052E000F0BD000000030020F0B53F4A0D46044623
:1052F000060A918810462F0A4089A1F51343413BC5
:1053000028D0A1F5A643103B24D0A1F5C853633B98
:105310002FD0A1F5AA43103B64D100F04AF93046E2
:1053200000F03BF95089401C80B200F042F9E0B235
:1053300000F033F9908900F03CF9384600F02DF97F
:105340009089401C80B200F034F9E8B2BDE8F0402A
:1053500000F023B900F02DF9304600F01EF9E0B25C
:1053600000F01BF9908900F024F9384600F015F997
:10537000EBE7917929B300F01CF9304600F00DF904
:10538000E0B200F00AF91088401EC0F30F2000F0D0
:1053900004F91078401EC0B200F0FFF8908900F0C8
:1053A00008F9384600F0F9F8E8B200F0F6F850884D
:1053B000401EC0F30F2000F0F0F89078401EC0B2FD
:1053C000C4E71188091B491E8CB200F0F2F80020D6
:1053D00000F0E3F8002000F0E0F8200A00F0DDF82B
:1053E000E0B2D9E7F0BD0000000300202DE9FF4F37
:1053F0001D460C468A46580700D0012000EBD50018
:10540000690810FB01F0203A00F0FF09D0B2002635
:10541000DFF8A4B002904BE00C2D11D0102D14D069
:10542000182D17D0202D45D12449029801EBC0102A
:105430004FF00008875D380613D52148026814E054
:105440000298204900EB400008E01F49029801EB58
:105450000010EDE702981D4900EBC00001EB800051
:10546000E6E70D9828B91648426821460098FDF7EE
:10547000E5FB7806070E641CBBF80200A4B2A0424C
:1054800018D9A4EB0A00A84209D100985446401C40
:1054900080B20090BBF8001081420BD906E008F101
:1054A000010000F0FF08B8F1080FC4D3761CF6B273
:1054B0004E45B1D3BDE8FF8F000300209897020846
:1054C00064000020D87F02084C8402083C8A02084D
:1054D0002DE9FF4F81B00026DDF838A01D46934628
:1054E00081463446B0464FEA5A0727E0281B401E43
:1054F000C1B20A20FFF7E2FDBBFBF0F00A21B0FBCE
:10550000F1F201FB120026B9691E8C4201DA48B1A2
:1055100001263030C2B207FB049080B25346CDF86A
:10552000008006E007FB049080B253462022CDF8AD
:1055300000800299FFF75AFF641CE4B2AC42D5D355
:1055400005B0BDE8F08F2DE9F84F044600F0FF09E3
:1055500010190D46DDE90AB61FFA80F8581987B20E
:105560004FF0000A12E0444503D305EB0B004C4614
:1055700085B2BD420FD25B4629462046CDF800A039
:10558000FFF734FF04EB5B0084B2761C3278A2F1A3
:1055900020005E28E7D9BDE8F88F01B5BDF800000E
:1055A000ADF80000BDF800004FF0D841A1F8800030
:1055B00008BD01B5BDF80000ADF80000BDF8000061
:1055C0004FF0D841A1F87E0008BD000003484FF01D
:1055D000D8410089A1F87E00704700000003002038
:1055E0004FF0D84222F87E0F5180704705201CF002
:1055F00011FE05201DF056FFF8E7000010B5154A12
:10560000002115481DF0A0FF144C124A0021206013
:10561000243213481DF098FF0E4A60604832002182
:1056200010481DF091FF0B4AA0606C3200210E481B
:105630001DF08AFF074AE060903200210B481DF000
:1056400083FF044A2061B432002109481DF07CFF29
:10565000606110BD007F02082D5B00084C00002037
:10566000096B0008C1290008E55C0008ED55000839
:105670004D0D000810B58EB01C216846FAF74AFEA1
:105680001C2107A8FAF746FE1B484FF020411022C4
:1056900001601A494160062181600021C160C0E9B2
:1056A00004128161C16113020162C0E9091393020E
:1056B000C0E90B13416381634164022000900F2015
:1056C0000423CDE901031123CDE90531CDE903021E
:1056D00003240994CDE907100DF1280C0D918CE8F5
:1056E0000D0007AA69460448FCF720FD002801D0F8
:1056F000FBF7BDFC0EB010BD10030020040100A09C
:105700002DE9F04186B014216846FAF703FE3348CC
:105710000024016841F004010160016801F0040106
:105720000591016841F080010160016801F080018C
:105730000591016841F020010160016801F020013C
:105740000591016841F010010160016801F010014C
:105750000591016841F002010160016801F0020158
:105760000591016841F008010160016801F008013C
:105770000591016841F001010160016801F001013A
:105780000591016841F0400101600068144F00F08C
:1057900040004FF420450590002229463846FCF78A
:1057A00049F9DFF840804FF4004600223146404678
:1057B000FCF740F900950125CDE9015469463846CA
:1057C0000394FCF75BF80096CDE901546946404626
:1057D0000394FCF753F806B0BDE8F081303802407E
:1057E00000140240000402400C4810B50A49016050
:1057F0004FF4E1314160002181600C22C160C0E9B9
:1058000004128161C161FCF7AEFD002803D0BDE840
:105810001040FBF72CBC10BD0010014060030020BD
:10582000FEE7FEE770B588B0244800248DF80040FC
:10583000016841F002010160016801F00201069176
:10584000016841F004010160006801A900F0040052
:1058500006900220012581E83100032004901848B9
:10586000FCF70CF86803CDE9010501A91548FCF720
:1058700005F8FBF7C9FA144EC6F8B442642006F5E1
:105880002D76FBF795FF35606420FBF791FF012033
:1058900000F014F9012269464FF4506000F01CF842
:1058A0009DF8001009A001F037F99DF8000080284C
:1058B00002D0012008B070BD0020FBE73038024064
:1058C00000040240000802400000414243545020BE
:1058D00049443A25780D0A002DE9F04115460E4657
:1058E0000446FBF755FBB220FBF722FBFBF794FBCA
:1058F000200AFBF71DFBFBF78FFBE0B2FBF718FB61
:10590000FBF78AFBFBF744FBB320FBF711FBFBF72C
:1059100083FB00246F1E09E0BC4201D0012000E09F
:105920000020FBF7CDFA3055641CE4B2AC42F3D34F
:10593000BDE8F041FBF74EBB2DE9F147564E002480
:105940002DED048B4FF00A0981B03078DFF84C81DF
:10595000401CC0B2B0FBF9F209FB120127463070BF
:1059600009B10A2877D2012205A90020FFF7B4FF68
:105970009DF81400C10672D000F01F0040F0C00076
:10598000454688F8200001279FED458B9FED469BFB
:1059900095F8200007FA04F108424FD04448042249
:1059A000694630F81400FFF797FF95F830009DF82E
:1059B0000210C0079DF8030000EB012022D0FAF787
:1059C0006BFE53EC182BFAF775FDFAF791FE05EB19
:1059D000440AAAF816009DF801009DF8001000EB9B
:1059E0000120FAF759FE53EC192BFAF763FD9FEDEE
:1059F000311B53EC112BFAF75AFDFAF779FEAAF88E
:105A00000C001BE0FAF748FE53EC182BFAF752FD96
:105A1000FAF76EFE05EB440AAAF80C009DF80100A7
:105A20009DF8001000EB0120FAF736FE53EC192B1D
:105A3000FAF740FDFAF75CFEAAF81600641CE4B21F
:105A4000052CA5D30127A989002019B9E98A09B92C
:105A50008DF8140030709DF81400C00610D198F82D
:105A60002000010602D520F0800007E04FF6FF710C
:105A7000A8F80C10A8F8161000F0E00088F8200034
:105A80003078F02801D986F8009001B03846BDEC96
:105A9000048BBDE8F88700006A0200207002002035
:105AA0007B14AE47E17AD43FD881734694F6D23F57
:105AB000B8460508000000000000894008B5002134
:105AC0008DF8001010B180208DF800000122694689
:105AD0004FF4506000F001F808BD2DE9F041164682
